{
  "contractName": "LuckGame",
  "abi": [
    {
      "inputs": [],
      "stateMutability": "nonpayable",
      "type": "constructor"
    },
    {
      "inputs": [
        {
          "internalType": "uint256",
          "name": "amount",
          "type": "uint256"
        }
      ],
      "name": "InvalidBetAmount",
      "type": "error"
    },
    {
      "anonymous": false,
      "inputs": [
        {
          "indexed": true,
          "internalType": "address",
          "name": "user",
          "type": "address"
        },
        {
          "indexed": false,
          "internalType": "uint256",
          "name": "amount",
          "type": "uint256"
        }
      ],
      "name": "Bet",
      "type": "event"
    },
    {
      "anonymous": false,
      "inputs": [
        {
          "indexed": true,
          "internalType": "address",
          "name": "recipient",
          "type": "address"
        },
        {
          "indexed": false,
          "internalType": "uint256",
          "name": "amount",
          "type": "uint256"
        }
      ],
      "name": "FundsTransferred",
      "type": "event"
    },
    {
      "anonymous": false,
      "inputs": [
        {
          "indexed": true,
          "internalType": "address",
          "name": "previousOwner",
          "type": "address"
        },
        {
          "indexed": true,
          "internalType": "address",
          "name": "newOwner",
          "type": "address"
        }
      ],
      "name": "OwnershipTransferred",
      "type": "event"
    },
    {
      "anonymous": false,
      "inputs": [
        {
          "indexed": false,
          "internalType": "address",
          "name": "account",
          "type": "address"
        }
      ],
      "name": "Paused",
      "type": "event"
    },
    {
      "anonymous": false,
      "inputs": [
        {
          "indexed": false,
          "internalType": "address",
          "name": "account",
          "type": "address"
        }
      ],
      "name": "Unpaused",
      "type": "event"
    },
    {
      "inputs": [],
      "name": "MAX_BET",
      "outputs": [
        {
          "internalType": "uint256",
          "name": "",
          "type": "uint256"
        }
      ],
      "stateMutability": "view",
      "type": "function",
      "constant": true
    },
    {
      "inputs": [],
      "name": "MIN_BET",
      "outputs": [
        {
          "internalType": "uint256",
          "name": "",
          "type": "uint256"
        }
      ],
      "stateMutability": "view",
      "type": "function",
      "constant": true
    },
    {
      "inputs": [],
      "name": "owner",
      "outputs": [
        {
          "internalType": "address",
          "name": "",
          "type": "address"
        }
      ],
      "stateMutability": "view",
      "type": "function",
      "constant": true
    },
    {
      "inputs": [],
      "name": "paused",
      "outputs": [
        {
          "internalType": "bool",
          "name": "",
          "type": "bool"
        }
      ],
      "stateMutability": "view",
      "type": "function",
      "constant": true
    },
    {
      "inputs": [],
      "name": "renounceOwnership",
      "outputs": [],
      "stateMutability": "nonpayable",
      "type": "function"
    },
    {
      "inputs": [
        {
          "internalType": "address",
          "name": "newOwner",
          "type": "address"
        }
      ],
      "name": "transferOwnership",
      "outputs": [],
      "stateMutability": "nonpayable",
      "type": "function"
    },
    {
      "stateMutability": "payable",
      "type": "receive",
      "payable": true
    },
    {
      "inputs": [],
      "name": "placeBet",
      "outputs": [],
      "stateMutability": "payable",
      "type": "function",
      "payable": true
    },
    {
      "inputs": [
        {
          "internalType": "address",
          "name": "to",
          "type": "address"
        },
        {
          "internalType": "uint256",
          "name": "amount",
          "type": "uint256"
        }
      ],
      "name": "transferFunds",
      "outputs": [],
      "stateMutability": "nonpayable",
      "type": "function"
    },
    {
      "inputs": [
        {
          "internalType": "address",
          "name": "user",
          "type": "address"
        }
      ],
      "name": "getBalance",
      "outputs": [
        {
          "internalType": "uint256",
          "name": "",
          "type": "uint256"
        }
      ],
      "stateMutability": "view",
      "type": "function",
      "constant": true
    },
    {
      "inputs": [],
      "name": "pause",
      "outputs": [],
      "stateMutability": "nonpayable",
      "type": "function"
    },
    {
      "inputs": [],
      "name": "unpause",
      "outputs": [],
      "stateMutability": "nonpayable",
      "type": "function"
    }
  ],
  "bytecode": "0x608060405234801561001057600080fd5b5061001a33610036565b600180556002805460ff1916905561003133610036565b610086565b600080546001600160a01b038381166001600160a01b0319831681178455604051919092169283917f8be0079c531659141344cd1fd0a4f28419497f9722a3daafe3b4186f6b6457e09190a35050565b61093f806100956000396000f3fe6080604052600436106100a05760003560e01c80638456cb59116100645780638456cb591461018e5780638da5cb5b146101a3578063990dc9db146101cb578063f2fde38b146101eb578063f8b2cb4f1461020b578063f90f45601461024157600080fd5b80633f4ba83a146100f75780635c975abb1461010c5780636540742f14610134578063715018a61461015d5780637e95b5231461017257600080fd5b366100f25766038d7ea4c680003410806100c15750678ac7230489e8000034115b156100e6576040516394ce5c9560e01b81523460048201526024015b60405180910390fd5b6100f03334610249565b005b600080fd5b34801561010357600080fd5b506100f0610312565b34801561011857600080fd5b5060025460ff1660405190151581526020015b60405180910390f35b34801561014057600080fd5b5061014f66038d7ea4c6800081565b60405190815260200161012b565b34801561016957600080fd5b506100f0610324565b34801561017e57600080fd5b5061014f678ac7230489e8000081565b34801561019a57600080fd5b506100f0610336565b3480156101af57600080fd5b506000546040516001600160a01b03909116815260200161012b565b3480156101d757600080fd5b506100f06101e6366004610896565b610346565b3480156101f757600080fd5b506100f06102063660046108c0565b610532565b34801561021757600080fd5b5061014f6102263660046108c0565b6001600160a01b031660009081526003602052604090205490565b6100f06105ab565b600081116102a35760405162461bcd60e51b815260206004820152602160248201527f42657420616d6f756e74206d7573742062652067726561746572207468616e206044820152600360fc1b60648201526084016100dd565b6001600160a01b038216600090815260036020526040812080548392906102cb9084906108e2565b90915550506040518181526001600160a01b038316907fc0ae20ffbb1eca06a840c35912bdb9f8e6e1fad1f028c875be0ddf54d480d71e9060200160405180910390a25050565b61031a610659565b6103226106b3565b565b61032c610659565b6103226000610705565b61033e610659565b610322610755565b61034e610659565b610356610792565b6001600160a01b0382166103ac5760405162461bcd60e51b815260206004820152601960248201527f496e76616c696420726563697069656e7420616464726573730000000000000060448201526064016100dd565b600081116103fc5760405162461bcd60e51b815260206004820152601d60248201527f416d6f756e74206d7573742062652067726561746572207468616e203000000060448201526064016100dd565b8047101561044c5760405162461bcd60e51b815260206004820152601d60248201527f496e73756666696369656e7420636f6e74726163742062616c616e636500000060448201526064016100dd565b6000826001600160a01b03168260405160006040518083038185875af1925050503d8060008114610499576040519150601f19603f3d011682016040523d82523d6000602084013e61049e565b606091505b50509050806104e15760405162461bcd60e51b815260206004820152600f60248201526e151c985b9cd9995c8819985a5b1959608a1b60448201526064016100dd565b826001600160a01b03167f8c9a4f13b67cb64d7c6aa1ae0c9bf07694af521a28b93e7060020810ab4bc59f8360405161051c91815260200190565b60405180910390a25061052e60018055565b5050565b61053a610659565b6001600160a01b03811661059f5760405162461bcd60e51b815260206004820152602660248201527f4f776e61626c653a206e6577206f776e657220697320746865207a65726f206160448201526564647265737360d01b60648201526084016100dd565b6105a881610705565b50565b6105b3610792565b6105bb6107eb565b66038d7ea4c680003410806105d75750678ac7230489e8000034115b156105f7576040516394ce5c9560e01b81523460048201526024016100dd565b33600090815260036020526040812080543492906106169084906108e2565b909155505060405134815233907fc0ae20ffbb1eca06a840c35912bdb9f8e6e1fad1f028c875be0ddf54d480d71e9060200160405180910390a261032260018055565b6000546001600160a01b031633146103225760405162461bcd60e51b815260206004820181905260248201527f4f776e61626c653a2063616c6c6572206973206e6f7420746865206f776e657260448201526064016100dd565b6106bb610831565b6002805460ff191690557f5db9ee0a495bf2e6ff9c91a7834c1ba4fdd244a5e8aa4e537bd38aeae4b073aa335b6040516001600160a01b03909116815260200160405180910390a1565b600080546001600160a01b038381166001600160a01b0319831681178455604051919092169283917f8be0079c531659141344cd1fd0a4f28419497f9722a3daafe3b4186f6b6457e09190a35050565b61075d6107eb565b6002805460ff191660011790557f62e78cea01bee320cd4e420270b5ea74000d11b0c9f74754ebdbfc544b05a2586106e83390565b6002600154036107e45760405162461bcd60e51b815260206004820152601f60248201527f5265656e7472616e637947756172643a207265656e7472616e742063616c6c0060448201526064016100dd565b6002600155565b60025460ff16156103225760405162461bcd60e51b815260206004820152601060248201526f14185d5cd8589b194e881c185d5cd95960821b60448201526064016100dd565b60025460ff166103225760405162461bcd60e51b815260206004820152601460248201527314185d5cd8589b194e881b9bdd081c185d5cd95960621b60448201526064016100dd565b80356001600160a01b038116811461089157600080fd5b919050565b600080604083850312156108a957600080fd5b6108b28361087a565b946020939093013593505050565b6000602082840312156108d257600080fd5b6108db8261087a565b9392505050565b8082018082111561090357634e487b7160e01b600052601160045260246000fd5b9291505056fea2646970667358221220dffc98cbca6878bd8be081062043d4a7a2a7c51ef1b2aa7d2f4659209310c54764736f6c63430008140033",
  "immutableReferences": {},
  "source": "// SPDX-License-Identifier: MIT\r\npragma solidity ^0.8.20;\r\n\r\nimport \"../node_modules/@openzeppelin/contracts/access/Ownable.sol\";\r\nimport \"../node_modules/@openzeppelin/contracts/security/ReentrancyGuard.sol\";\r\nimport \"../node_modules/@openzeppelin/contracts/security/Pausable.sol\";\r\nimport \"./interfaces/ILuckGame.sol\";\r\n\r\ncontract LuckGame is ILuckGame, Ownable, ReentrancyGuard, Pausable {\r\n    // \r\n//    struct BetRecord {\r\n//        uint256 amount;\r\n//        uint256 number;\r\n//        uint256 timestamp;\r\n//    }\r\n\r\n    // \r\n    //mapping(address => BetRecord[]) public betRecords;\r\n    \r\n    // \r\n    mapping(address => uint256) private _balances;\r\n//    mapping(address => uint256) private _commissions;\r\n//    mapping(address => bool) private _agents;\r\n//    mapping(address => address) private _agentRelations;\r\n    \r\n    uint256 public constant MIN_BET = 0.001 ether;\r\n    uint256 public constant MAX_BET = 10 ether;\r\n//    uint256 public constant COMMISSION_RATE = 500; // 5% = 500 basis points\r\n//    uint256 private constant BASIS_POINTS = 10000;\r\n    \r\n    constructor() Ownable() Pausable() {\r\n        _transferOwnership(msg.sender);  // \r\n    }\r\n\r\n    // Add this event with the other events at the top of the contract\r\n    event FundsTransferred(address indexed recipient, uint256 amount);\r\n    \r\n    //  -  placeBet \r\n    function placeBet() external payable override nonReentrant whenNotPaused {\r\n        if (msg.value < MIN_BET || msg.value > MAX_BET) {\r\n            revert InvalidBetAmount(msg.value);\r\n        }\r\n//        if (number < 1 || number > 99) {\r\n//            revert InvalidNumber(number);\r\n//        }\r\n        \r\n        _balances[msg.sender] += msg.value;\r\n        \r\n        // \r\n//        address agent = _agentRelations[msg.sender];\r\n//        if (agent != address(0) && _agents[agent]) {\r\n//            uint256 commission = (msg.value * COMMISSION_RATE) / BASIS_POINTS;\r\n//            _commissions[agent] += commission;\r\n//        }\r\n        \r\n        // \r\n//        betRecords[msg.sender].push(BetRecord({\r\n//            amount: msg.value,\r\n//            number: number,\r\n//            timestamp: block.timestamp\r\n//        }));\r\n        \r\n        emit Bet(msg.sender, msg.value);  // \r\n    }\r\n    \r\n    // \r\n//    function withdraw() external override nonReentrant {\r\n//        uint256 amount = _balances[msg.sender];\r\n//        if (amount == 0) revert NoBalance();\r\n//\r\n//        _balances[msg.sender] = 0;\r\n//\r\n//        (bool success, ) = payable(msg.sender).call{value: amount}(\"\");\r\n//        if (!success) revert TransferFailed();\r\n//\r\n//        emit Win(msg.sender, amount);\r\n//    }\r\n\r\n    // Add this function after the withdraw() function and before _processBet()\r\n    function transferFunds(address to, uint256 amount) external onlyOwner nonReentrant {\r\n        require(to != address(0), \"Invalid recipient address\");\r\n        require(amount > 0, \"Amount must be greater than 0\");\r\n        require(address(this).balance >= amount, \"Insufficient contract balance\");\r\n\r\n        // Transfer the funds\r\n        (bool success, ) = to.call{value: amount}(\"\");\r\n        require(success, \"Transfer failed\");\r\n\r\n        emit FundsTransferred(to, amount);\r\n    }\r\n    \r\n    // \r\n//    function withdrawCommission() external override nonReentrant {\r\n//        if (!_agents[msg.sender]) revert NotAgent(msg.sender);\r\n//\r\n//        uint256 amount = _commissions[msg.sender];\r\n//        if (amount == 0) revert NoBalance();\r\n//\r\n//        _commissions[msg.sender] = 0;\r\n//\r\n//        (bool success, ) = payable(msg.sender).call{value: amount}(\"\");\r\n//        if (!success) revert TransferFailed();\r\n//\r\n//        emit AgentCommission(msg.sender, amount);\r\n//    }\r\n    \r\n    // \r\n//    function addAgent(address agent) external override onlyOwner {\r\n//        _agents[agent] = true;\r\n//        emit AgentAdded(agent);\r\n//    }\r\n//\r\n//    function removeAgent(address agent) external override onlyOwner {\r\n//        _agents[agent] = false;\r\n//        emit AgentRemoved(agent);\r\n//    }\r\n//\r\n//    function setAgentRelation(address user, address agent) external override onlyOwner {\r\n//        if (!_agents[agent]) revert NotAgent(agent);\r\n//        _agentRelations[user] = agent;\r\n//        emit AgentRelationSet(user, agent);\r\n//    }\r\n    \r\n    // \r\n    function getBalance(address user) external view override returns (uint256) {\r\n        return _balances[user];\r\n    }\r\n    \r\n//    function getAgentCommission(address agent) external view override returns (uint256) {\r\n//        return _commissions[agent];\r\n//    }\r\n//\r\n//    function isAgent(address user) external view override returns (bool) {\r\n//        return _agents[user];\r\n//    }\r\n//\r\n//    function getAgentForUser(address user) external view override returns (address) {\r\n//        return _agentRelations[user];\r\n//    }\r\n    \r\n    // \r\n    function pause() external onlyOwner {\r\n        _pause();\r\n    }\r\n    \r\n    function unpause() external onlyOwner {\r\n        _unpause();\r\n    }\r\n    \r\n    //  receive \r\n    receive() external payable {\r\n        // \r\n        if (msg.value < MIN_BET || msg.value > MAX_BET) {\r\n            revert InvalidBetAmount(msg.value);\r\n        }\r\n        \r\n        // \r\n        _processBet(msg.sender, msg.value); //  1\r\n    }\r\n\r\n    // \r\n    function _processBet(address bettor, uint256 amount) internal {\r\n        require(amount > 0, \"Bet amount must be greater than 0\");\r\n        //require(number >= 1 && number <= 99, \"Bet number must be between 1 and 99\");\r\n        \r\n        _balances[bettor] += amount;\r\n        \r\n        // \r\n//        address agent = _agentRelations[bettor];\r\n//        if (agent != address(0) && _agents[agent]) {\r\n//            uint256 commission = (amount * COMMISSION_RATE) / BASIS_POINTS;\r\n//            _commissions[agent] += commission;\r\n//        }\r\n        \r\n        // \r\n//        betRecords[bettor].push(BetRecord({\r\n//            amount: amount,\r\n//            number: number,\r\n//            timestamp: block.timestamp\r\n//        }));\r\n        \r\n        emit Bet(bettor, amount);  // \r\n    }\r\n\r\n\r\n\r\n\r\n}",
  "sourcePath": "D:\\workspace\\Ethereum\\CrowdReact\\truffle-contract\\contracts\\LuckGame.sol",
  "compiler": {
    "name": "solc",
    "version": "0.8.20+commit.a1b79de6.Emscripten.clang"
  },
  "schemaVersion": "3.4.16",
  "updatedAt": "2024-12-27T01:39:08.205Z",
  "networkType": "ethereum",
  "devdoc": {
    "events": {
      "Bet(address,uint256)": {
        "params": {
          "amount": "",
          "user": ""
        }
      },
      "Paused(address)": {
        "details": "Emitted when the pause is triggered by `account`."
      },
      "Unpaused(address)": {
        "details": "Emitted when the pause is lifted by `account`."
      }
    },
    "kind": "dev",
    "methods": {
      "getBalance(address)": {
        "params": {
          "user": ""
        },
        "returns": {
          "_0": ""
        }
      },
      "owner()": {
        "details": "Returns the address of the current owner."
      },
      "paused()": {
        "details": "Returns true if the contract is paused, and false otherwise."
      },
      "placeBet()": {
        "details": " ETH "
      },
      "renounceOwnership()": {
        "details": "Leaves the contract without owner. It will not be possible to call `onlyOwner` functions. Can only be called by the current owner. NOTE: Renouncing ownership will leave the contract without an owner, thereby disabling any functionality that is only available to the owner."
      },
      "transferOwnership(address)": {
        "details": "Transfers ownership of the contract to a new account (`newOwner`). Can only be called by the current owner."
      }
    },
    "version": 1
  },
  "userdoc": {
    "errors": {
      "InvalidBetAmount(uint256)": [
        {
          "notice": ""
        }
      ]
    },
    "events": {
      "Bet(address,uint256)": {
        "notice": ""
      }
    },
    "kind": "user",
    "methods": {
      "getBalance(address)": {
        "notice": ""
      },
      "placeBet()": {
        "notice": ""
      }
    },
    "version": 1
  }
}